{
  "_format": "hh-sol-artifact-1",
  "contractName": "OwnableMulticall",
  "sourceName": "contracts/imports/OwnableMulticall.sol",
  "abi": [
    {
      "inputs": [],
      "stateMutability": "nonpayable",
      "type": "constructor"
    },
    {
      "inputs": [],
      "name": "InvalidInitialization",
      "type": "error"
    },
    {
      "inputs": [],
      "name": "NotInitializing",
      "type": "error"
    },
    {
      "inputs": [
        {
          "internalType": "address",
          "name": "owner",
          "type": "address"
        }
      ],
      "name": "OwnableInvalidOwner",
      "type": "error"
    },
    {
      "inputs": [
        {
          "internalType": "address",
          "name": "account",
          "type": "address"
        }
      ],
      "name": "OwnableUnauthorizedAccount",
      "type": "error"
    },
    {
      "anonymous": false,
      "inputs": [
        {
          "indexed": false,
          "internalType": "uint64",
          "name": "version",
          "type": "uint64"
        }
      ],
      "name": "Initialized",
      "type": "event"
    },
    {
      "anonymous": false,
      "inputs": [
        {
          "indexed": true,
          "internalType": "address",
          "name": "previousOwner",
          "type": "address"
        },
        {
          "indexed": true,
          "internalType": "address",
          "name": "newOwner",
          "type": "address"
        }
      ],
      "name": "OwnershipTransferred",
      "type": "event"
    },
    {
      "inputs": [],
      "name": "owner",
      "outputs": [
        {
          "internalType": "address",
          "name": "",
          "type": "address"
        }
      ],
      "stateMutability": "view",
      "type": "function"
    },
    {
      "inputs": [
        {
          "components": [
            {
              "internalType": "address",
              "name": "to",
              "type": "address"
            },
            {
              "internalType": "bytes",
              "name": "data",
              "type": "bytes"
            }
          ],
          "internalType": "struct Call[]",
          "name": "calls",
          "type": "tuple[]"
        }
      ],
      "name": "proxyCalls",
      "outputs": [],
      "stateMutability": "nonpayable",
      "type": "function"
    },
    {
      "inputs": [],
      "name": "renounceOwnership",
      "outputs": [],
      "stateMutability": "nonpayable",
      "type": "function"
    },
    {
      "inputs": [
        {
          "internalType": "address",
          "name": "newOwner",
          "type": "address"
        }
      ],
      "name": "transferOwnership",
      "outputs": [],
      "stateMutability": "nonpayable",
      "type": "function"
    }
  ],
  "bytecode": "0x608060405234801561001057600080fd5b506100203361002560201b60201c565b61012a565b600061003561010260201b60201c565b905060008160000160009054906101000a900473ffffffffffffffffffffffffffffffffffffffff169050828260000160006101000a81548173ffffffffffffffffffffffffffffffffffffffff021916908373ffffffffffffffffffffffffffffffffffffffff1602179055508273ffffffffffffffffffffffffffffffffffffffff168173ffffffffffffffffffffffffffffffffffffffff167f8be0079c531659141344cd1fd0a4f28419497f9722a3daafe3b4186f6b6457e060405160405180910390a3505050565b60007f9016d09d72d40fdae2fd8ceac6b6234c7706214fd39c1cd1e609a0528c199300905090565b61075c806101396000396000f3fe608060405234801561001057600080fd5b506004361061004c5760003560e01c8063715018a61461005157806388b755141461005b5780638da5cb5b14610077578063f2fde38b14610095575b600080fd5b6100596100b1565b005b61007560048036038101906100709190610496565b6100c5565b005b61007f6101db565b60405161008c9190610524565b60405180910390f35b6100af60048036038101906100aa919061056b565b610213565b005b6100b9610299565b6100c36000610320565b565b6100cd610299565b60005b828290508110156101d6576000808484848181106100f1576100f0610598565b5b905060200281019061010391906105d6565b6000016020810190610115919061056b565b73ffffffffffffffffffffffffffffffffffffffff1685858581811061013e5761013d610598565b5b905060200281019061015091906105d6565b806020019061015f91906105fe565b60405161016d9291906106a0565b6000604051808303816000865af19150503d80600081146101aa576040519150601f19603f3d011682016040523d82523d6000602084013e6101af565b606091505b5091509150816101c0578060208201fd5b50506001816101cf91906106f2565b90506100d0565b505050565b6000806101e66103f7565b90508060000160009054906101000a900473ffffffffffffffffffffffffffffffffffffffff1691505090565b61021b610299565b600073ffffffffffffffffffffffffffffffffffffffff168173ffffffffffffffffffffffffffffffffffffffff160361028d5760006040517f1e4fbdf70000000000000000000000000000000000000000000000000000000081526004016102849190610524565b60405180910390fd5b61029681610320565b50565b6102a161041f565b73ffffffffffffffffffffffffffffffffffffffff166102bf6101db565b73ffffffffffffffffffffffffffffffffffffffff161461031e576102e261041f565b6040517f118cdaa70000000000000000000000000000000000000000000000000000000081526004016103159190610524565b60405180910390fd5b565b600061032a6103f7565b905060008160000160009054906101000a900473ffffffffffffffffffffffffffffffffffffffff169050828260000160006101000a81548173ffffffffffffffffffffffffffffffffffffffff021916908373ffffffffffffffffffffffffffffffffffffffff1602179055508273ffffffffffffffffffffffffffffffffffffffff168173ffffffffffffffffffffffffffffffffffffffff167f8be0079c531659141344cd1fd0a4f28419497f9722a3daafe3b4186f6b6457e060405160405180910390a3505050565b60007f9016d09d72d40fdae2fd8ceac6b6234c7706214fd39c1cd1e609a0528c199300905090565b600033905090565b600080fd5b600080fd5b600080fd5b600080fd5b600080fd5b60008083601f84011261045657610455610431565b5b8235905067ffffffffffffffff81111561047357610472610436565b5b60208301915083602082028301111561048f5761048e61043b565b5b9250929050565b600080602083850312156104ad576104ac610427565b5b600083013567ffffffffffffffff8111156104cb576104ca61042c565b5b6104d785828601610440565b92509250509250929050565b600073ffffffffffffffffffffffffffffffffffffffff82169050919050565b600061050e826104e3565b9050919050565b61051e81610503565b82525050565b60006020820190506105396000830184610515565b92915050565b61054881610503565b811461055357600080fd5b50565b6000813590506105658161053f565b92915050565b60006020828403121561058157610580610427565b5b600061058f84828501610556565b91505092915050565b7f4e487b7100000000000000000000000000000000000000000000000000000000600052603260045260246000fd5b600080fd5b600080fd5b600080fd5b6000823560016040038336030381126105f2576105f16105c7565b5b80830191505092915050565b6000808335600160200384360303811261061b5761061a6105c7565b5b80840192508235915067ffffffffffffffff82111561063d5761063c6105cc565b5b602083019250600182023603831315610659576106586105d1565b5b509250929050565b600081905092915050565b82818337600083830152505050565b60006106878385610661565b935061069483858461066c565b82840190509392505050565b60006106ad82848661067b565b91508190509392505050565b6000819050919050565b7f4e487b7100000000000000000000000000000000000000000000000000000000600052601160045260246000fd5b60006106fd826106b9565b9150610708836106b9565b92508282019050808211156107205761071f6106c3565b5b9291505056fea2646970667358221220e25371278c9859137ded9c308ced5cc2e9fa274079d649a7e7d6a21bf4d7166764736f6c63430008140033",
  "linkReferences": {},
  "deployedLinkReferences": {}
}