{
  "_format": "hh-sol-artifact-1",
  "contractName": "nnsRegistry",
  "sourceName": "contracts/nnsRegistry.sol",
  "abi": [
    {
      "inputs": [
        {
          "internalType": "address",
          "name": "paramImplementationAddress",
          "type": "address"
        },
        {
          "internalType": "address",
          "name": "paramRegistryAddress",
          "type": "address"
        }
      ],
      "stateMutability": "nonpayable",
      "type": "constructor"
    },
    {
      "anonymous": false,
      "inputs": [
        {
          "indexed": false,
          "internalType": "string",
          "name": "name",
          "type": "string"
        },
        {
          "indexed": false,
          "internalType": "address",
          "name": "namedNpcAddress",
          "type": "address"
        },
        {
          "indexed": false,
          "internalType": "address",
          "name": "npcAccountAddress",
          "type": "address"
        }
      ],
      "name": "nneCreatedAndRegistered",
      "type": "event"
    },
    {
      "inputs": [
        {
          "internalType": "string",
          "name": "paramNameToRegister",
          "type": "string"
        }
      ],
      "name": "createNewNamedNpcEntity",
      "outputs": [],
      "stateMutability": "nonpayable",
      "type": "function"
    },
    {
      "inputs": [],
      "name": "destinationChainDomain",
      "outputs": [
        {
          "internalType": "uint32",
          "name": "",
          "type": "uint32"
        }
      ],
      "stateMutability": "view",
      "type": "function"
    },
    {
      "inputs": [],
      "name": "destinationNnsRegistry",
      "outputs": [
        {
          "internalType": "address",
          "name": "",
          "type": "address"
        }
      ],
      "stateMutability": "view",
      "type": "function"
    },
    {
      "inputs": [],
      "name": "erc6551Implementation",
      "outputs": [
        {
          "internalType": "address",
          "name": "",
          "type": "address"
        }
      ],
      "stateMutability": "view",
      "type": "function"
    },
    {
      "inputs": [],
      "name": "erc6551Registry",
      "outputs": [
        {
          "internalType": "address",
          "name": "",
          "type": "address"
        }
      ],
      "stateMutability": "view",
      "type": "function"
    },
    {
      "inputs": [
        {
          "internalType": "uint32",
          "name": "_origin",
          "type": "uint32"
        },
        {
          "internalType": "bytes32",
          "name": "_sender",
          "type": "bytes32"
        },
        {
          "internalType": "bytes",
          "name": "_body",
          "type": "bytes"
        }
      ],
      "name": "handle",
      "outputs": [],
      "stateMutability": "nonpayable",
      "type": "function"
    },
    {
      "inputs": [],
      "name": "interchainSecurityModule",
      "outputs": [
        {
          "internalType": "contract IInterchainSecurityModule",
          "name": "",
          "type": "address"
        }
      ],
      "stateMutability": "view",
      "type": "function"
    },
    {
      "inputs": [
        {
          "internalType": "uint32",
          "name": "paramDestinationChainDomain",
          "type": "uint32"
        },
        {
          "internalType": "address",
          "name": "paramDestinationChainAddressReceiver",
          "type": "address"
        },
        {
          "internalType": "string",
          "name": "paramNameToRegister",
          "type": "string"
        },
        {
          "internalType": "address",
          "name": "newNftResolverAddr",
          "type": "address"
        },
        {
          "internalType": "uint256",
          "name": "originChainId",
          "type": "uint256"
        }
      ],
      "name": "makeCcCall",
      "outputs": [],
      "stateMutability": "payable",
      "type": "function"
    },
    {
      "inputs": [
        {
          "internalType": "uint256",
          "name": "",
          "type": "uint256"
        }
      ],
      "name": "nnsNftContractArray",
      "outputs": [
        {
          "internalType": "contract nnsNftResolver",
          "name": "",
          "type": "address"
        }
      ],
      "stateMutability": "view",
      "type": "function"
    },
    {
      "inputs": [],
      "name": "owner",
      "outputs": [
        {
          "internalType": "address",
          "name": "",
          "type": "address"
        }
      ],
      "stateMutability": "view",
      "type": "function"
    },
    {
      "inputs": [],
      "name": "saltCounter",
      "outputs": [
        {
          "internalType": "uint256",
          "name": "",
          "type": "uint256"
        }
      ],
      "stateMutability": "view",
      "type": "function"
    },
    {
      "inputs": [
        {
          "internalType": "uint32",
          "name": "paramChainDomain",
          "type": "uint32"
        },
        {
          "internalType": "address",
          "name": "paramDestinationRegistry",
          "type": "address"
        }
      ],
      "name": "setCcRegistryData",
      "outputs": [],
      "stateMutability": "nonpayable",
      "type": "function"
    }
  ],
  "bytecode": "0x6080604052620493e060005573cc737a94fecaec165abcf12ded095bb13f037685600160006101000a81548173ffffffffffffffffffffffffffffffffffffffff021916908373ffffffffffffffffffffffffffffffffffffffff160217905550738f9c3888bfc8a5b25aed115a82ecbb788b196d2a600260006101000a81548173ffffffffffffffffffffffffffffffffffffffff021916908373ffffffffffffffffffffffffffffffffffffffff1602179055506000600360006101000a81548173ffffffffffffffffffffffffffffffffffffffff021916908373ffffffffffffffffffffffffffffffffffffffff1602179055503480156200010457600080fd5b5060405162004ccf38038062004ccf83398181016040528101906200012a91906200025f565b33600560006101000a81548173ffffffffffffffffffffffffffffffffffffffff021916908373ffffffffffffffffffffffffffffffffffffffff16021790555081600660006101000a81548173ffffffffffffffffffffffffffffffffffffffff021916908373ffffffffffffffffffffffffffffffffffffffff16021790555080600760006101000a81548173ffffffffffffffffffffffffffffffffffffffff021916908373ffffffffffffffffffffffffffffffffffffffff1602179055505050620002a6565b600080fd5b600073ffffffffffffffffffffffffffffffffffffffff82169050919050565b60006200022782620001fa565b9050919050565b62000239816200021a565b81146200024557600080fd5b50565b60008151905062000259816200022e565b92915050565b60008060408385031215620002795762000278620001f5565b5b6000620002898582860162000248565b92505060206200029c8582860162000248565b9150509250929050565b614a1980620002b66000396000f3fe608060405260043610620000b65760003560e01c80638da5cb5b116200006d5780638da5cb5b14620001d9578063a04c68091462000209578063a8c928f31462000239578063b3dd12a21462000269578063de523cf31462000299578063e69bc52514620002c957620000b6565b8063056d5afe14620000bb5780630c8648d014620000eb5780635192c56b146200011957806356d5d47514620001475780637820f3a214620001755780637f55a3fa1462000195575b600080fd5b348015620000c857600080fd5b50620000d3620002f9565b604051620000e2919062000b9a565b60405180910390f35b348015620000f857600080fd5b5062000117600480360381019062000111919062000d2d565b6200031f565b005b3480156200012657600080fd5b506200014560048036038101906200013f919062000df0565b6200072e565b005b3480156200015457600080fd5b506200017360048036038101906200016d919062000edb565b62000827565b005b6200019360048036038101906200018d919062000f96565b620008ad565b005b348015620001a257600080fd5b50620001c16004803603810190620001bb91906200103d565b62000a30565b604051620001d09190620010da565b60405180910390f35b348015620001e657600080fd5b50620001f162000a70565b60405162000200919062000b9a565b60405180910390f35b3480156200021657600080fd5b506200022162000a96565b60405162000230919062001108565b60405180910390f35b3480156200024657600080fd5b506200025162000a9c565b60405162000260919062000b9a565b60405180910390f35b3480156200027657600080fd5b506200028162000ac2565b60405162000290919062000b9a565b60405180910390f35b348015620002a657600080fd5b50620002b162000ae8565b604051620002c091906200114a565b60405180910390f35b348015620002d657600080fd5b50620002e162000b0e565b604051620002f0919062001178565b60405180910390f35b600760009054906101000a900473ffffffffffffffffffffffffffffffffffffffff1681565b600b816040516200033191906200120e565b908152602001604051809103902060009054906101000a900460ff161562000390576040517f08c379a0000000000000000000000000000000000000000000000000000000008152600401620003879062001288565b60405180910390fd5b60008133604051620003a29062000b47565b620003af929190620012eb565b604051809103906000f080158015620003cc573d6000803e3d6000fd5b5090506009819080600181540180825580915050600190039060005260206000200160009091909190916101000a81548173ffffffffffffffffffffffffffffffffffffffff021916908373ffffffffffffffffffffffffffffffffffffffff16021790555060008173ffffffffffffffffffffffffffffffffffffffff166341ea64066040518163ffffffff1660e01b8152600401602060405180830381865afa15801562000480573d6000803e3d6000fd5b505050506040513d601f19601f82011682018060405250810190620004a6919062001336565b90506000600760009054906101000a900473ffffffffffffffffffffffffffffffffffffffff1673ffffffffffffffffffffffffffffffffffffffff1663da7323b3600660009054906101000a900473ffffffffffffffffffffffffffffffffffffffff16468560006008546040518663ffffffff1660e01b815260040162000534959493929190620013e6565b6020604051808303816000875af115801562000554573d6000803e3d6000fd5b505050506040513d601f19601f820116820180604052508101906200057a919062001336565b90508073ffffffffffffffffffffffffffffffffffffffff1663b71cac5a826040518263ffffffff1660e01b8152600401620005b7919062000b9a565b600060405180830381600087803b158015620005d257600080fd5b505af1158015620005e7573d6000803e3d6000fd5b5050505081600a85604051620005fe91906200120e565b908152602001604051809103902060006101000a81548173ffffffffffffffffffffffffffffffffffffffff021916908373ffffffffffffffffffffffffffffffffffffffff1602179055506001600b856040516200065e91906200120e565b908152602001604051809103902060006101000a81548160ff02191690831515021790555046600c856040516200069691906200120e565b908152602001604051809103902081905550620006eb600360149054906101000a900463ffffffff16600460009054906101000a900473ffffffffffffffffffffffffffffffffffffffff16868546620008ad565b7f2e20fd44a9678dc936650f56b0ded3931fcc29fbcb2c4aaa5674c91d4a349f8d848383604051620007209392919062001458565b60405180910390a150505050565b600560009054906101000a900473ffffffffffffffffffffffffffffffffffffffff1673ffffffffffffffffffffffffffffffffffffffff163373ffffffffffffffffffffffffffffffffffffffff1614620007c1576040517f08c379a0000000000000000000000000000000000000000000000000000000008152600401620007b890620014ec565b60405180910390fd5b81600360146101000a81548163ffffffff021916908363ffffffff16021790555080600460006101000a81548173ffffffffffffffffffffffffffffffffffffffff021916908373ffffffffffffffffffffffffffffffffffffffff1602179055505050565b600160009054906101000a900473ffffffffffffffffffffffffffffffffffffffff1673ffffffffffffffffffffffffffffffffffffffff163373ffffffffffffffffffffffffffffffffffffffff16146200088257600080fd5b6060600080848481019062000898919062001553565b80935081945082955050505050505050505050565b6000838383604051602001620008c693929190620015ce565b60405160208183030381529060405290506000600160009054906101000a900473ffffffffffffffffffffffffffffffffffffffff1673ffffffffffffffffffffffffffffffffffffffff1663fa31de0188620009238962000b24565b856040518463ffffffff1660e01b815260040162000944939291906200166f565b6020604051808303816000875af115801562000964573d6000803e3d6000fd5b505050506040513d601f19601f820116820180604052508101906200098a9190620016ca565b9050600260009054906101000a900473ffffffffffffffffffffffffffffffffffffffff1673ffffffffffffffffffffffffffffffffffffffff166311bf2c1834838a62124f80326040518663ffffffff1660e01b8152600401620009f394939291906200173f565b6000604051808303818588803b15801562000a0d57600080fd5b505af115801562000a22573d6000803e3d6000fd5b505050505050505050505050565b6009818154811062000a4157600080fd5b906000526020600020016000915054906101000a900473ffffffffffffffffffffffffffffffffffffffff1681565b600560009054906101000a900473ffffffffffffffffffffffffffffffffffffffff1681565b60085481565b600460009054906101000a900473ffffffffffffffffffffffffffffffffffffffff1681565b600660009054906101000a900473ffffffffffffffffffffffffffffffffffffffff1681565b600360009054906101000a900473ffffffffffffffffffffffffffffffffffffffff1681565b600360149054906101000a900463ffffffff1681565b60008173ffffffffffffffffffffffffffffffffffffffff1660001b9050919050565b613257806200178d83390190565b600073ffffffffffffffffffffffffffffffffffffffff82169050919050565b600062000b828262000b55565b9050919050565b62000b948162000b75565b82525050565b600060208201905062000bb1600083018462000b89565b92915050565b6000604051905090565b600080fd5b600080fd5b600080fd5b600080fd5b6000601f19601f8301169050919050565b7f4e487b7100000000000000000000000000000000000000000000000000000000600052604160045260246000fd5b62000c208262000bd5565b810181811067ffffffffffffffff8211171562000c425762000c4162000be6565b5b80604052505050565b600062000c5762000bb7565b905062000c65828262000c15565b919050565b600067ffffffffffffffff82111562000c885762000c8762000be6565b5b62000c938262000bd5565b9050602081019050919050565b82818337600083830152505050565b600062000cc662000cc08462000c6a565b62000c4b565b90508281526020810184848401111562000ce55762000ce462000bd0565b5b62000cf284828562000ca0565b509392505050565b600082601f83011262000d125762000d1162000bcb565b5b813562000d2484826020860162000caf565b91505092915050565b60006020828403121562000d465762000d4562000bc1565b5b600082013567ffffffffffffffff81111562000d675762000d6662000bc6565b5b62000d758482850162000cfa565b91505092915050565b600063ffffffff82169050919050565b62000d998162000d7e565b811462000da557600080fd5b50565b60008135905062000db98162000d8e565b92915050565b62000dca8162000b75565b811462000dd657600080fd5b50565b60008135905062000dea8162000dbf565b92915050565b6000806040838503121562000e0a5762000e0962000bc1565b5b600062000e1a8582860162000da8565b925050602062000e2d8582860162000dd9565b9150509250929050565b6000819050919050565b62000e4c8162000e37565b811462000e5857600080fd5b50565b60008135905062000e6c8162000e41565b92915050565b600080fd5b600080fd5b60008083601f84011262000e955762000e9462000bcb565b5b8235905067ffffffffffffffff81111562000eb55762000eb462000e72565b5b60208301915083600182028301111562000ed45762000ed362000e77565b5b9250929050565b6000806000806060858703121562000ef85762000ef762000bc1565b5b600062000f088782880162000da8565b945050602062000f1b8782880162000e5b565b935050604085013567ffffffffffffffff81111562000f3f5762000f3e62000bc6565b5b62000f4d8782880162000e7c565b925092505092959194509250565b6000819050919050565b62000f708162000f5b565b811462000f7c57600080fd5b50565b60008135905062000f908162000f65565b92915050565b600080600080600060a0868803121562000fb55762000fb462000bc1565b5b600062000fc58882890162000da8565b955050602062000fd88882890162000dd9565b945050604086013567ffffffffffffffff81111562000ffc5762000ffb62000bc6565b5b6200100a8882890162000cfa565b93505060606200101d8882890162000dd9565b9250506080620010308882890162000f7f565b9150509295509295909350565b60006020828403121562001056576200105562000bc1565b5b6000620010668482850162000f7f565b91505092915050565b6000819050919050565b60006200109a620010946200108e8462000b55565b6200106f565b62000b55565b9050919050565b6000620010ae8262001079565b9050919050565b6000620010c282620010a1565b9050919050565b620010d481620010b5565b82525050565b6000602082019050620010f16000830184620010c9565b92915050565b620011028162000f5b565b82525050565b60006020820190506200111f6000830184620010f7565b92915050565b60006200113282620010a1565b9050919050565b620011448162001125565b82525050565b600060208201905062001161600083018462001139565b92915050565b620011728162000d7e565b82525050565b60006020820190506200118f600083018462001167565b92915050565b600081519050919050565b600081905092915050565b60005b83811015620011cb578082015181840152602081019050620011ae565b60008484015250505050565b6000620011e48262001195565b620011f08185620011a0565b935062001202818560208601620011ab565b80840191505092915050565b60006200121c8284620011d7565b915081905092915050565b600082825260208201905092915050565b7f4e616d6520616c726561647920726567697374657265642e0000000000000000600082015250565b60006200127060188362001227565b91506200127d8262001238565b602082019050919050565b60006020820190508181036000830152620012a38162001261565b9050919050565b6000620012b78262001195565b620012c3818562001227565b9350620012d5818560208601620011ab565b620012e08162000bd5565b840191505092915050565b60006040820190508181036000830152620013078185620012aa565b905062001318602083018462000b89565b9392505050565b600081519050620013308162000dbf565b92915050565b6000602082840312156200134f576200134e62000bc1565b5b60006200135f848285016200131f565b91505092915050565b6000819050919050565b6000620013936200138d620013878462001368565b6200106f565b62000f5b565b9050919050565b620013a58162001372565b82525050565b600082825260208201905092915050565b50565b6000620013ce600083620013ab565b9150620013db82620013bc565b600082019050919050565b600060c082019050620013fd600083018862000b89565b6200140c6020830187620010f7565b6200141b604083018662000b89565b6200142a60608301856200139a565b620014396080830184620010f7565b81810360a08301526200144c81620013bf565b90509695505050505050565b60006060820190508181036000830152620014748186620012aa565b905062001485602083018562000b89565b62001494604083018462000b89565b949350505050565b7f4e6f74206f776e65722e00000000000000000000000000000000000000000000600082015250565b6000620014d4600a8362001227565b9150620014e1826200149c565b602082019050919050565b600060208201905081810360008301526200150781620014c5565b9050919050565b60006200151b8262000b55565b9050919050565b6200152d816200150e565b81146200153957600080fd5b50565b6000813590506200154d8162001522565b92915050565b6000806000606084860312156200156f576200156e62000bc1565b5b600084013567ffffffffffffffff81111562001590576200158f62000bc6565b5b6200159e8682870162000cfa565b9350506020620015b1868287016200153c565b9250506040620015c48682870162000f7f565b9150509250925092565b60006060820190508181036000830152620015ea8186620012aa565b9050620015fb602083018562000b89565b6200160a6040830184620010f7565b949350505050565b6200161d8162000e37565b82525050565b600081519050919050565b60006200163b8262001623565b620016478185620013ab565b935062001659818560208601620011ab565b620016648162000bd5565b840191505092915050565b600060608201905062001686600083018662001167565b62001695602083018562001612565b8181036040830152620016a981846200162e565b9050949350505050565b600081519050620016c48162000e41565b92915050565b600060208284031215620016e357620016e262000bc1565b5b6000620016f384828501620016b3565b91505092915050565b6000819050919050565b600062001727620017216200171b84620016fc565b6200106f565b62000f5b565b9050919050565b620017398162001706565b82525050565b600060808201905062001756600083018762001612565b62001765602083018662001167565b6200177460408301856200172e565b62001783606083018462000b89565b9594505050505056fe60806040523480156200001157600080fd5b506040516200325738038062003257833981810160405281019062000037919062000d3b565b818281600090816200004a919062000fec565b5080600190816200005c919062000fec565b50505033600660006101000a81548173ffffffffffffffffffffffffffffffffffffffff021916908373ffffffffffffffffffffffffffffffffffffffff160217905550620000b3816000620000bb60201b60201c565b50506200129c565b620000dd828260405180602001604052806000815250620000e160201b60201c565b5050565b620000f383836200010d60201b60201c565b6200010860008484846200021460201b60201c565b505050565b600073ffffffffffffffffffffffffffffffffffffffff168273ffffffffffffffffffffffffffffffffffffffff1603620001825760006040517f64a0ae92000000000000000000000000000000000000000000000000000000008152600401620001799190620010e4565b60405180910390fd5b60006200019883836000620003e260201b60201c565b9050600073ffffffffffffffffffffffffffffffffffffffff168173ffffffffffffffffffffffffffffffffffffffff16146200020f5760006040517f73c6ac6e000000000000000000000000000000000000000000000000000000008152600401620002069190620010e4565b60405180910390fd5b505050565b60008373ffffffffffffffffffffffffffffffffffffffff163b1115620003dc578273ffffffffffffffffffffffffffffffffffffffff1663150b7a02620002616200061760201b60201c565b8685856040518563ffffffff1660e01b81526004016200028594939291906200116f565b6020604051808303816000875af1925050508015620002c457506040513d601f19601f82011682018060405250810190620002c1919062001220565b60015b6200034e573d8060008114620002f7576040519150601f19603f3d011682016040523d82523d6000602084013e620002fc565b606091505b5060008151036200034657836040517f64a0ae920000000000000000000000000000000000000000000000000000000081526004016200033d9190620010e4565b60405180910390fd5b805181602001fd5b63150b7a0260e01b7bffffffffffffffffffffffffffffffffffffffffffffffffffffffff1916817bffffffffffffffffffffffffffffffffffffffffffffffffffffffff191614620003da57836040517f64a0ae92000000000000000000000000000000000000000000000000000000008152600401620003d19190620010e4565b60405180910390fd5b505b50505050565b600080620003f6846200061f60201b60201c565b9050600073ffffffffffffffffffffffffffffffffffffffff168373ffffffffffffffffffffffffffffffffffffffff16146200044157620004408184866200065c60201b60201c565b5b600073ffffffffffffffffffffffffffffffffffffffff168173ffffffffffffffffffffffffffffffffffffffff1614620004db576200048c6000856000806200072e60201b60201c565b6001600360008373ffffffffffffffffffffffffffffffffffffffff1673ffffffffffffffffffffffffffffffffffffffff168152602001908152602001600020600082825403925050819055505b600073ffffffffffffffffffffffffffffffffffffffff168573ffffffffffffffffffffffffffffffffffffffff16146200055f576001600360008773ffffffffffffffffffffffffffffffffffffffff1673ffffffffffffffffffffffffffffffffffffffff168152602001908152602001600020600082825401925050819055505b846002600086815260200190815260200160002060006101000a81548173ffffffffffffffffffffffffffffffffffffffff021916908373ffffffffffffffffffffffffffffffffffffffff160217905550838573ffffffffffffffffffffffffffffffffffffffff168273ffffffffffffffffffffffffffffffffffffffff167fddf252ad1be2c89b69c2b068fc378daa952ba7f163c4a11628f55a4df523b3ef60405160405180910390a4809150509392505050565b600033905090565b60006002600083815260200190815260200160002060009054906101000a900473ffffffffffffffffffffffffffffffffffffffff169050919050565b6200066f8383836200090b60201b60201c565b6200072957600073ffffffffffffffffffffffffffffffffffffffff168373ffffffffffffffffffffffffffffffffffffffff1603620006e857806040517f7e273289000000000000000000000000000000000000000000000000000000008152600401620006df919062001252565b60405180910390fd5b81816040517f177e802f000000000000000000000000000000000000000000000000000000008152600401620007209291906200126f565b60405180910390fd5b505050565b8080620007685750600073ffffffffffffffffffffffffffffffffffffffff168273ffffffffffffffffffffffffffffffffffffffff1614155b15620008b35760006200078184620009df60201b60201c565b9050600073ffffffffffffffffffffffffffffffffffffffff168373ffffffffffffffffffffffffffffffffffffffff1614158015620007ed57508273ffffffffffffffffffffffffffffffffffffffff168173ffffffffffffffffffffffffffffffffffffffff1614155b801562000809575062000807818462000a7260201b60201c565b155b156200084e57826040517fa9fbf51f000000000000000000000000000000000000000000000000000000008152600401620008459190620010e4565b60405180910390fd5b8115620008b157838573ffffffffffffffffffffffffffffffffffffffff168273ffffffffffffffffffffffffffffffffffffffff167f8c5be1e5ebec7d5bd14f71427d1e84f3dd0314c0f7b2291e5b200ac8c7c3b92560405160405180910390a45b505b836004600085815260200190815260200160002060006101000a81548173ffffffffffffffffffffffffffffffffffffffff021916908373ffffffffffffffffffffffffffffffffffffffff16021790555050505050565b60008073ffffffffffffffffffffffffffffffffffffffff168373ffffffffffffffffffffffffffffffffffffffff1614158015620009d657508273ffffffffffffffffffffffffffffffffffffffff168473ffffffffffffffffffffffffffffffffffffffff1614806200098e57506200098d848462000a7260201b60201c565b5b80620009d557508273ffffffffffffffffffffffffffffffffffffffff16620009bd8362000b0660201b60201c565b73ffffffffffffffffffffffffffffffffffffffff16145b5b90509392505050565b600080620009f3836200061f60201b60201c565b9050600073ffffffffffffffffffffffffffffffffffffffff168173ffffffffffffffffffffffffffffffffffffffff160362000a6957826040517f7e27328900000000000000000000000000000000000000000000000000000000815260040162000a60919062001252565b60405180910390fd5b80915050919050565b6000600560008473ffffffffffffffffffffffffffffffffffffffff1673ffffffffffffffffffffffffffffffffffffffff16815260200190815260200160002060008373ffffffffffffffffffffffffffffffffffffffff1673ffffffffffffffffffffffffffffffffffffffff16815260200190815260200160002060009054906101000a900460ff16905092915050565b60006004600083815260200190815260200160002060009054906101000a900473ffffffffffffffffffffffffffffffffffffffff169050919050565b6000604051905090565b600080fd5b600080fd5b600080fd5b600080fd5b6000601f19601f8301169050919050565b7f4e487b7100000000000000000000000000000000000000000000000000000000600052604160045260246000fd5b62000bac8262000b61565b810181811067ffffffffffffffff8211171562000bce5762000bcd62000b72565b5b80604052505050565b600062000be362000b43565b905062000bf1828262000ba1565b919050565b600067ffffffffffffffff82111562000c145762000c1362000b72565b5b62000c1f8262000b61565b9050602081019050919050565b60005b8381101562000c4c57808201518184015260208101905062000c2f565b60008484015250505050565b600062000c6f62000c698462000bf6565b62000bd7565b90508281526020810184848401111562000c8e5762000c8d62000b5c565b5b62000c9b84828562000c2c565b509392505050565b600082601f83011262000cbb5762000cba62000b57565b5b815162000ccd84826020860162000c58565b91505092915050565b600073ffffffffffffffffffffffffffffffffffffffff82169050919050565b600062000d038262000cd6565b9050919050565b62000d158162000cf6565b811462000d2157600080fd5b50565b60008151905062000d358162000d0a565b92915050565b6000806040838503121562000d555762000d5462000b4d565b5b600083015167ffffffffffffffff81111562000d765762000d7562000b52565b5b62000d848582860162000ca3565b925050602062000d978582860162000d24565b9150509250929050565b600081519050919050565b7f4e487b7100000000000000000000000000000000000000000000000000000000600052602260045260246000fd5b6000600282049050600182168062000df457607f821691505b60208210810362000e0a5762000e0962000dac565b5b50919050565b60008190508160005260206000209050919050565b60006020601f8301049050919050565b600082821b905092915050565b60006008830262000e747fffffffffffffffffffffffffffffffffffffffffffffffffffffffffffffffff8262000e35565b62000e80868362000e35565b95508019841693508086168417925050509392505050565b6000819050919050565b6000819050919050565b600062000ecd62000ec762000ec18462000e98565b62000ea2565b62000e98565b9050919050565b6000819050919050565b62000ee98362000eac565b62000f0162000ef88262000ed4565b84845462000e42565b825550505050565b600090565b62000f1862000f09565b62000f2581848462000ede565b505050565b5b8181101562000f4d5762000f4160008262000f0e565b60018101905062000f2b565b5050565b601f82111562000f9c5762000f668162000e10565b62000f718462000e25565b8101602085101562000f81578190505b62000f9962000f908562000e25565b83018262000f2a565b50505b505050565b600082821c905092915050565b600062000fc16000198460080262000fa1565b1980831691505092915050565b600062000fdc838362000fae565b9150826002028217905092915050565b62000ff78262000da1565b67ffffffffffffffff81111562001013576200101262000b72565b5b6200101f825462000ddb565b6200102c82828562000f51565b600060209050601f8311600181146200106457600084156200104f578287015190505b6200105b858262000fce565b865550620010cb565b601f198416620010748662000e10565b60005b828110156200109e5784890151825560018201915060208501945060208101905062001077565b86831015620010be5784890151620010ba601f89168262000fae565b8355505b6001600288020188555050505b505050505050565b620010de8162000cf6565b82525050565b6000602082019050620010fb6000830184620010d3565b92915050565b6200110c8162000e98565b82525050565b600081519050919050565b600082825260208201905092915050565b60006200113b8262001112565b6200114781856200111d565b93506200115981856020860162000c2c565b620011648162000b61565b840191505092915050565b6000608082019050620011866000830187620010d3565b620011956020830186620010d3565b620011a4604083018562001101565b8181036060830152620011b881846200112e565b905095945050505050565b60007fffffffff0000000000000000000000000000000000000000000000000000000082169050919050565b620011fa81620011c3565b81146200120657600080fd5b50565b6000815190506200121a81620011ef565b92915050565b60006020828403121562001239576200123862000b4d565b5b6000620012498482850162001209565b91505092915050565b600060208201905062001269600083018462001101565b92915050565b6000604082019050620012866000830185620010d3565b62001295602083018462001101565b9392505050565b611fab80620012ac6000396000f3fe608060405234801561001057600080fd5b506004361061012c5760003560e01c806370a08231116100ad578063b387ef9211610071578063b387ef9214610331578063b71cac5a1461034f578063b88d4fde1461036b578063c87b56dd14610387578063e985e9c5146103b75761012c565b806370a082311461028d5780637b103999146102bd5780637b1c50e6146102db57806395d89b41146102f7578063a22cb465146103155761012c565b806326e3962b116100f457806326e3962b146101e757806341ea64061461020557806342842e0e146102235780634f2c32e91461023f5780636352211e1461025d5761012c565b806301ffc9a71461013157806306fdde0314610161578063081812fc1461017f578063095ea7b3146101af57806323b872dd146101cb575b600080fd5b61014b60048036038101906101469190611789565b6103e7565b60405161015891906117d1565b60405180910390f35b6101696104c9565b604051610176919061187c565b60405180910390f35b610199600480360381019061019491906118d4565b61055b565b6040516101a69190611942565b60405180910390f35b6101c960048036038101906101c49190611989565b610577565b005b6101e560048036038101906101e091906119c9565b61058d565b005b6101ef61068f565b6040516101fc919061187c565b60405180910390f35b61020d61069e565b60405161021a9190611942565b60405180910390f35b61023d600480360381019061023891906119c9565b6106a6565b005b6102476106c6565b6040516102549190611942565b60405180910390f35b610277600480360381019061027291906118d4565b6106ec565b6040516102849190611942565b60405180910390f35b6102a760048036038101906102a29190611a1c565b6106fe565b6040516102b49190611a58565b60405180910390f35b6102c56107b8565b6040516102d29190611942565b60405180910390f35b6102f560048036038101906102f09190611a1c565b6107de565b005b6102ff61082e565b60405161030c919061187c565b60405180910390f35b61032f600480360381019061032a9190611a9f565b6108c0565b005b6103396108d6565b6040516103469190611942565b60405180910390f35b61036960048036038101906103649190611a1c565b6108e7565b005b61038560048036038101906103809190611c14565b6109bb565b005b6103a1600480360381019061039c91906118d4565b6109d8565b6040516103ae919061187c565b60405180910390f35b6103d160048036038101906103cc9190611c97565b610a41565b6040516103de91906117d1565b60405180910390f35b60007f80ac58cd000000000000000000000000000000000000000000000000000000007bffffffffffffffffffffffffffffffffffffffffffffffffffffffff1916827bffffffffffffffffffffffffffffffffffffffffffffffffffffffff191614806104b257507f5b5e139f000000000000000000000000000000000000000000000000000000007bffffffffffffffffffffffffffffffffffffffffffffffffffffffff1916827bffffffffffffffffffffffffffffffffffffffffffffffffffffffff1916145b806104c257506104c182610ad5565b5b9050919050565b6060600080546104d890611d06565b80601f016020809104026020016040519081016040528092919081815260200182805461050490611d06565b80156105515780601f1061052657610100808354040283529160200191610551565b820191906000526020600020905b81548152906001019060200180831161053457829003601f168201915b5050505050905090565b600061056682610b3f565b5061057082610bc7565b9050919050565b6105898282610584610c04565b610c0c565b5050565b600073ffffffffffffffffffffffffffffffffffffffff168273ffffffffffffffffffffffffffffffffffffffff16036105ff5760006040517f64a0ae920000000000000000000000000000000000000000000000000000000081526004016105f69190611942565b60405180910390fd5b6000610613838361060e610c04565b610c1e565b90508373ffffffffffffffffffffffffffffffffffffffff168173ffffffffffffffffffffffffffffffffffffffff1614610689578382826040517f64283d7b00000000000000000000000000000000000000000000000000000000815260040161068093929190611d37565b60405180910390fd5b50505050565b60606106996104c9565b905090565b600030905090565b6106c1838383604051806020016040528060008152506109bb565b505050565b600760009054906101000a900473ffffffffffffffffffffffffffffffffffffffff1681565b60006106f782610b3f565b9050919050565b60008073ffffffffffffffffffffffffffffffffffffffff168273ffffffffffffffffffffffffffffffffffffffff16036107715760006040517f89c62b640000000000000000000000000000000000000000000000000000000081526004016107689190611942565b60405180910390fd5b600360008373ffffffffffffffffffffffffffffffffffffffff1673ffffffffffffffffffffffffffffffffffffffff168152602001908152602001600020549050919050565b600660009054906101000a900473ffffffffffffffffffffffffffffffffffffffff1681565b6107e860006106ec565b73ffffffffffffffffffffffffffffffffffffffff163373ffffffffffffffffffffffffffffffffffffffff161461081f57600080fd5b61082b338260006106a6565b50565b60606001805461083d90611d06565b80601f016020809104026020016040519081016040528092919081815260200182805461086990611d06565b80156108b65780601f1061088b576101008083540402835291602001916108b6565b820191906000526020600020905b81548152906001019060200180831161089957829003601f168201915b5050505050905090565b6108d26108cb610c04565b8383610e38565b5050565b60006108e260006106ec565b905090565b600660009054906101000a900473ffffffffffffffffffffffffffffffffffffffff1673ffffffffffffffffffffffffffffffffffffffff163373ffffffffffffffffffffffffffffffffffffffff1614610977576040517f08c379a000000000000000000000000000000000000000000000000000000000815260040161096e90611dba565b60405180910390fd5b80600760006101000a81548173ffffffffffffffffffffffffffffffffffffffff021916908373ffffffffffffffffffffffffffffffffffffffff16021790555050565b6109c684848461058d565b6109d284848484610fa7565b50505050565b60606109e382610b3f565b5060006109ee61115e565b90506000815111610a0e5760405180602001604052806000815250610a39565b80610a1884611175565b604051602001610a29929190611e16565b6040516020818303038152906040525b915050919050565b6000600560008473ffffffffffffffffffffffffffffffffffffffff1673ffffffffffffffffffffffffffffffffffffffff16815260200190815260200160002060008373ffffffffffffffffffffffffffffffffffffffff1673ffffffffffffffffffffffffffffffffffffffff16815260200190815260200160002060009054906101000a900460ff16905092915050565b60007f01ffc9a7000000000000000000000000000000000000000000000000000000007bffffffffffffffffffffffffffffffffffffffffffffffffffffffff1916827bffffffffffffffffffffffffffffffffffffffffffffffffffffffff1916149050919050565b600080610b4b83611243565b9050600073ffffffffffffffffffffffffffffffffffffffff168173ffffffffffffffffffffffffffffffffffffffff1603610bbe57826040517f7e273289000000000000000000000000000000000000000000000000000000008152600401610bb59190611a58565b60405180910390fd5b80915050919050565b60006004600083815260200190815260200160002060009054906101000a900473ffffffffffffffffffffffffffffffffffffffff169050919050565b600033905090565b610c198383836001611280565b505050565b600080610c2a84611243565b9050600073ffffffffffffffffffffffffffffffffffffffff168373ffffffffffffffffffffffffffffffffffffffff1614610c6c57610c6b818486611445565b5b600073ffffffffffffffffffffffffffffffffffffffff168173ffffffffffffffffffffffffffffffffffffffff1614610cfd57610cae600085600080611280565b6001600360008373ffffffffffffffffffffffffffffffffffffffff1673ffffffffffffffffffffffffffffffffffffffff168152602001908152602001600020600082825403925050819055505b600073ffffffffffffffffffffffffffffffffffffffff168573ffffffffffffffffffffffffffffffffffffffff1614610d80576001600360008773ffffffffffffffffffffffffffffffffffffffff1673ffffffffffffffffffffffffffffffffffffffff168152602001908152602001600020600082825401925050819055505b846002600086815260200190815260200160002060006101000a81548173ffffffffffffffffffffffffffffffffffffffff021916908373ffffffffffffffffffffffffffffffffffffffff160217905550838573ffffffffffffffffffffffffffffffffffffffff168273ffffffffffffffffffffffffffffffffffffffff167fddf252ad1be2c89b69c2b068fc378daa952ba7f163c4a11628f55a4df523b3ef60405160405180910390a4809150509392505050565b600073ffffffffffffffffffffffffffffffffffffffff168273ffffffffffffffffffffffffffffffffffffffff1603610ea957816040517f5b08ba18000000000000000000000000000000000000000000000000000000008152600401610ea09190611942565b60405180910390fd5b80600560008573ffffffffffffffffffffffffffffffffffffffff1673ffffffffffffffffffffffffffffffffffffffff16815260200190815260200160002060008473ffffffffffffffffffffffffffffffffffffffff1673ffffffffffffffffffffffffffffffffffffffff16815260200190815260200160002060006101000a81548160ff0219169083151502179055508173ffffffffffffffffffffffffffffffffffffffff168373ffffffffffffffffffffffffffffffffffffffff167f17307eab39ab6107e8899845ad3d59bd9653f200f220920489ca2b5937696c3183604051610f9a91906117d1565b60405180910390a3505050565b60008373ffffffffffffffffffffffffffffffffffffffff163b1115611158578273ffffffffffffffffffffffffffffffffffffffff1663150b7a02610feb610c04565b8685856040518563ffffffff1660e01b815260040161100d9493929190611e8f565b6020604051808303816000875af192505050801561104957506040513d601f19601f820116820180604052508101906110469190611ef0565b60015b6110cd573d8060008114611079576040519150601f19603f3d011682016040523d82523d6000602084013e61107e565b606091505b5060008151036110c557836040517f64a0ae920000000000000000000000000000000000000000000000000000000081526004016110bc9190611942565b60405180910390fd5b805181602001fd5b63150b7a0260e01b7bffffffffffffffffffffffffffffffffffffffffffffffffffffffff1916817bffffffffffffffffffffffffffffffffffffffffffffffffffffffff19161461115657836040517f64a0ae9200000000000000000000000000000000000000000000000000000000815260040161114d9190611942565b60405180910390fd5b505b50505050565b606060405180602001604052806000815250905090565b60606000600161118484611509565b01905060008167ffffffffffffffff8111156111a3576111a2611ae9565b5b6040519080825280601f01601f1916602001820160405280156111d55781602001600182028036833780820191505090505b509050600082602001820190505b600115611238578080600190039150507f3031323334353637383961626364656600000000000000000000000000000000600a86061a8153600a858161122c5761122b611f1d565b5b049450600085036111e3575b819350505050919050565b60006002600083815260200190815260200160002060009054906101000a900473ffffffffffffffffffffffffffffffffffffffff169050919050565b80806112b95750600073ffffffffffffffffffffffffffffffffffffffff168273ffffffffffffffffffffffffffffffffffffffff1614155b156113ed5760006112c984610b3f565b9050600073ffffffffffffffffffffffffffffffffffffffff168373ffffffffffffffffffffffffffffffffffffffff161415801561133457508273ffffffffffffffffffffffffffffffffffffffff168173ffffffffffffffffffffffffffffffffffffffff1614155b801561134757506113458184610a41565b155b1561138957826040517fa9fbf51f0000000000000000000000000000000000000000000000000000000081526004016113809190611942565b60405180910390fd5b81156113eb57838573ffffffffffffffffffffffffffffffffffffffff168273ffffffffffffffffffffffffffffffffffffffff167f8c5be1e5ebec7d5bd14f71427d1e84f3dd0314c0f7b2291e5b200ac8c7c3b92560405160405180910390a45b505b836004600085815260200190815260200160002060006101000a81548173ffffffffffffffffffffffffffffffffffffffff021916908373ffffffffffffffffffffffffffffffffffffffff16021790555050505050565b61145083838361165c565b61150457600073ffffffffffffffffffffffffffffffffffffffff168373ffffffffffffffffffffffffffffffffffffffff16036114c557806040517f7e2732890000000000000000000000000000000000000000000000000000000081526004016114bc9190611a58565b60405180910390fd5b81816040517f177e802f0000000000000000000000000000000000000000000000000000000081526004016114fb929190611f4c565b60405180910390fd5b505050565b600080600090507a184f03e93ff9f4daa797ed6e38ed64bf6a1f0100000000000000008310611567577a184f03e93ff9f4daa797ed6e38ed64bf6a1f010000000000000000838161155d5761155c611f1d565b5b0492506040810190505b6d04ee2d6d415b85acef810000000083106115a4576d04ee2d6d415b85acef8100000000838161159a57611599611f1d565b5b0492506020810190505b662386f26fc1000083106115d357662386f26fc1000083816115c9576115c8611f1d565b5b0492506010810190505b6305f5e10083106115fc576305f5e10083816115f2576115f1611f1d565b5b0492506008810190505b612710831061162157612710838161161757611616611f1d565b5b0492506004810190505b60648310611644576064838161163a57611639611f1d565b5b0492506002810190505b600a8310611653576001810190505b80915050919050565b60008073ffffffffffffffffffffffffffffffffffffffff168373ffffffffffffffffffffffffffffffffffffffff161415801561171457508273ffffffffffffffffffffffffffffffffffffffff168473ffffffffffffffffffffffffffffffffffffffff1614806116d557506116d48484610a41565b5b8061171357508273ffffffffffffffffffffffffffffffffffffffff166116fb83610bc7565b73ffffffffffffffffffffffffffffffffffffffff16145b5b90509392505050565b6000604051905090565b600080fd5b600080fd5b60007fffffffff0000000000000000000000000000000000000000000000000000000082169050919050565b61176681611731565b811461177157600080fd5b50565b6000813590506117838161175d565b92915050565b60006020828403121561179f5761179e611727565b5b60006117ad84828501611774565b91505092915050565b60008115159050919050565b6117cb816117b6565b82525050565b60006020820190506117e660008301846117c2565b92915050565b600081519050919050565b600082825260208201905092915050565b60005b8381101561182657808201518184015260208101905061180b565b60008484015250505050565b6000601f19601f8301169050919050565b600061184e826117ec565b61185881856117f7565b9350611868818560208601611808565b61187181611832565b840191505092915050565b600060208201905081810360008301526118968184611843565b905092915050565b6000819050919050565b6118b18161189e565b81146118bc57600080fd5b50565b6000813590506118ce816118a8565b92915050565b6000602082840312156118ea576118e9611727565b5b60006118f8848285016118bf565b91505092915050565b600073ffffffffffffffffffffffffffffffffffffffff82169050919050565b600061192c82611901565b9050919050565b61193c81611921565b82525050565b60006020820190506119576000830184611933565b92915050565b61196681611921565b811461197157600080fd5b50565b6000813590506119838161195d565b92915050565b600080604083850312156119a05761199f611727565b5b60006119ae85828601611974565b92505060206119bf858286016118bf565b9150509250929050565b6000806000606084860312156119e2576119e1611727565b5b60006119f086828701611974565b9350506020611a0186828701611974565b9250506040611a12868287016118bf565b9150509250925092565b600060208284031215611a3257611a31611727565b5b6000611a4084828501611974565b91505092915050565b611a528161189e565b82525050565b6000602082019050611a6d6000830184611a49565b92915050565b611a7c816117b6565b8114611a8757600080fd5b50565b600081359050611a9981611a73565b92915050565b60008060408385031215611ab657611ab5611727565b5b6000611ac485828601611974565b9250506020611ad585828601611a8a565b9150509250929050565b600080fd5b600080fd5b7f4e487b7100000000000000000000000000000000000000000000000000000000600052604160045260246000fd5b611b2182611832565b810181811067ffffffffffffffff82111715611b4057611b3f611ae9565b5b80604052505050565b6000611b5361171d565b9050611b5f8282611b18565b919050565b600067ffffffffffffffff821115611b7f57611b7e611ae9565b5b611b8882611832565b9050602081019050919050565b82818337600083830152505050565b6000611bb7611bb284611b64565b611b49565b905082815260208101848484011115611bd357611bd2611ae4565b5b611bde848285611b95565b509392505050565b600082601f830112611bfb57611bfa611adf565b5b8135611c0b848260208601611ba4565b91505092915050565b60008060008060808587031215611c2e57611c2d611727565b5b6000611c3c87828801611974565b9450506020611c4d87828801611974565b9350506040611c5e878288016118bf565b925050606085013567ffffffffffffffff811115611c7f57611c7e61172c565b5b611c8b87828801611be6565b91505092959194509250565b60008060408385031215611cae57611cad611727565b5b6000611cbc85828601611974565b9250506020611ccd85828601611974565b9150509250929050565b7f4e487b7100000000000000000000000000000000000000000000000000000000600052602260045260246000fd5b60006002820490506001821680611d1e57607f821691505b602082108103611d3157611d30611cd7565b5b50919050565b6000606082019050611d4c6000830186611933565b611d596020830185611a49565b611d666040830184611933565b949350505050565b7f4e6f742072656769737472792e00000000000000000000000000000000000000600082015250565b6000611da4600d836117f7565b9150611daf82611d6e565b602082019050919050565b60006020820190508181036000830152611dd381611d97565b9050919050565b600081905092915050565b6000611df0826117ec565b611dfa8185611dda565b9350611e0a818560208601611808565b80840191505092915050565b6000611e228285611de5565b9150611e2e8284611de5565b91508190509392505050565b600081519050919050565b600082825260208201905092915050565b6000611e6182611e3a565b611e6b8185611e45565b9350611e7b818560208601611808565b611e8481611832565b840191505092915050565b6000608082019050611ea46000830187611933565b611eb16020830186611933565b611ebe6040830185611a49565b8181036060830152611ed08184611e56565b905095945050505050565b600081519050611eea8161175d565b92915050565b600060208284031215611f0657611f05611727565b5b6000611f1484828501611edb565b91505092915050565b7f4e487b7100000000000000000000000000000000000000000000000000000000600052601260045260246000fd5b6000604082019050611f616000830185611933565b611f6e6020830184611a49565b939250505056fea26469706673582212202f2d11c51f084518277e50e000ee30d8f84eefd43b51b3d4dbd5bdc241ef7ebe64736f6c63430008140033a26469706673582212206be256f0ff274dc4ee924188e2da5d194adebba8396de9cd0e8e4861e58a00b064736f6c63430008140033",
  "linkReferences": {},
  "deployedLinkReferences": {}
}