{
  "_format": "hh-sol-artifact-1",
  "contractName": "AccountERC6551",
  "sourceName": "contracts/erc6551/eth-paris-2023/apps/smart-contracts/contracts/Account/AccountERC6551.sol",
  "abi": [
    {
      "inputs": [],
      "name": "NotAuthorized",
      "type": "error"
    },
    {
      "inputs": [],
      "name": "OwnershipCycle",
      "type": "error"
    },
    {
      "anonymous": false,
      "inputs": [
        {
          "indexed": true,
          "internalType": "address",
          "name": "target",
          "type": "address"
        },
        {
          "indexed": true,
          "internalType": "uint256",
          "name": "value",
          "type": "uint256"
        },
        {
          "indexed": false,
          "internalType": "bytes",
          "name": "data",
          "type": "bytes"
        }
      ],
      "name": "TransactionExecuted",
      "type": "event"
    },
    {
      "stateMutability": "payable",
      "type": "fallback"
    },
    {
      "inputs": [
        {
          "internalType": "address",
          "name": "to",
          "type": "address"
        },
        {
          "internalType": "uint256",
          "name": "value",
          "type": "uint256"
        },
        {
          "internalType": "bytes",
          "name": "data",
          "type": "bytes"
        }
      ],
      "name": "executeCall",
      "outputs": [
        {
          "internalType": "bytes",
          "name": "",
          "type": "bytes"
        }
      ],
      "stateMutability": "payable",
      "type": "function"
    },
    {
      "inputs": [
        {
          "internalType": "bytes32",
          "name": "hash",
          "type": "bytes32"
        },
        {
          "internalType": "bytes",
          "name": "signature",
          "type": "bytes"
        }
      ],
      "name": "isValidSignature",
      "outputs": [
        {
          "internalType": "bytes4",
          "name": "magicValue",
          "type": "bytes4"
        }
      ],
      "stateMutability": "view",
      "type": "function"
    },
    {
      "inputs": [],
      "name": "owner",
      "outputs": [
        {
          "internalType": "address",
          "name": "",
          "type": "address"
        }
      ],
      "stateMutability": "view",
      "type": "function"
    },
    {
      "inputs": [
        {
          "internalType": "bytes4",
          "name": "interfaceId",
          "type": "bytes4"
        }
      ],
      "name": "supportsInterface",
      "outputs": [
        {
          "internalType": "bool",
          "name": "",
          "type": "bool"
        }
      ],
      "stateMutability": "pure",
      "type": "function"
    },
    {
      "inputs": [],
      "name": "token",
      "outputs": [
        {
          "internalType": "uint256",
          "name": "chainId",
          "type": "uint256"
        },
        {
          "internalType": "address",
          "name": "tokenContract",
          "type": "address"
        },
        {
          "internalType": "uint256",
          "name": "tokenId",
          "type": "uint256"
        }
      ],
      "stateMutability": "view",
      "type": "function"
    },
    {
      "stateMutability": "payable",
      "type": "receive"
    }
  ],
  "bytecode": "0x608060405234801561001057600080fd5b50611095806100206000396000f3fe60806040526004361061004e5760003560e01c806301ffc9a7146100575780631626ba7e146100945780638da5cb5b146100d15780639e5d4c49146100fc578063fc0c546a1461012c57610055565b3661005557005b005b34801561006357600080fd5b5061007e6004803603810190610079919061088b565b610159565b60405161008b91906108d3565b60405180910390f35b3480156100a057600080fd5b506100bb60048036038101906100b69190610a6a565b6102aa565b6040516100c89190610ad5565b60405180910390f35b3480156100dd57600080fd5b506100e66102e3565b6040516100f39190610b31565b60405180910390f35b61011660048036038101906101119190610c0e565b61038d565b6040516101239190610d01565b60405180910390f35b34801561013857600080fd5b506101416103f6565b60405161015093929190610d32565b60405180910390f35b6000807f01ffc9a7000000000000000000000000000000000000000000000000000000007bffffffffffffffffffffffffffffffffffffffffffffffffffffffff1916837bffffffffffffffffffffffffffffffffffffffffffffffffffffffff1916148061022557507f4e2312e0000000000000000000000000000000000000000000000000000000007bffffffffffffffffffffffffffffffffffffffffffffffffffffffff1916837bffffffffffffffffffffffffffffffffffffffffffffffffffffffff1916145b8061028d57507feff4d378000000000000000000000000000000000000000000000000000000007bffffffffffffffffffffffffffffffffffffffffffffffffffffffff1916837bffffffffffffffffffffffffffffffffffffffffffffffffffffffff1916145b9050801561029f5760019150506102a5565b60009150505b919050565b6000806102b56102e3565b90506102c281858561040e565b156102d757631626ba7e60e01b9150506102dd565b60009150505b92915050565b6000806000806102f161049e565b92509250925046831461030a576000935050505061038a565b8173ffffffffffffffffffffffffffffffffffffffff16636352211e826040518263ffffffff1660e01b81526004016103439190610d69565b602060405180830381865afa158015610360573d6000803e3d6000fd5b505050506040513d601f19601f820116820180604052508101906103849190610d99565b93505050505b90565b6060838573ffffffffffffffffffffffffffffffffffffffff167f47d99ad340f52da66535aff7e10da1ceb85a32bcbd9fa1c42314d194545e14d285856040516103d8929190610df3565b60405180910390a36103ec8585858561051e565b9050949350505050565b600080600061040361049e565b925092509250909192565b600080600061041d85856105ab565b50915091506000600381111561043657610435610e17565b5b81600381111561044957610448610e17565b5b14801561048157508573ffffffffffffffffffffffffffffffffffffffff168273ffffffffffffffffffffffffffffffffffffffff16145b806104935750610492868686610607565b5b925050509392505050565b600080600080606067ffffffffffffffff8111156104bf576104be61093f565b5b6040519080825280601f01601f1916602001820160405280156104f15781602001600182028036833780820191505090505b50905060ad604d60208301303c808060200190518101906105129190610e99565b93509350935050909192565b606060008573ffffffffffffffffffffffffffffffffffffffff1685858560405161054a929190610f1c565b60006040518083038185875af1925050503d8060008114610587576040519150601f19603f3d011682016040523d82523d6000602084013e61058c565b606091505b508093508192505050806105a257815160208301fd5b50949350505050565b600080600060418451036105f05760008060006020870151925060408701519150606087015160001a90506105e28882858561072b565b955095509550505050610600565b60006002855160001b9250925092505b9250925092565b60008060008573ffffffffffffffffffffffffffffffffffffffff168585604051602401610636929190610f44565b604051602081830303815290604052631626ba7e60e01b6020820180517bffffffffffffffffffffffffffffffffffffffffffffffffffffffff83818316178352505050506040516106889190610fa5565b600060405180830381855afa9150503d80600081146106c3576040519150601f19603f3d011682016040523d82523d6000602084013e6106c8565b606091505b50915091508180156106dc57506020815110155b80156107205750631626ba7e60e01b7bffffffffffffffffffffffffffffffffffffffffffffffffffffffff19168180602001905181019061071e9190610fd1565b145b925050509392505050565b60008060007f7fffffffffffffffffffffffffffffff5d576e7357a4501ddfe92f46681b20a08460001c111561076b576000600385925092509250610815565b600060018888888860405160008152602001604052604051610790949392919061101a565b6020604051602081039080840390855afa1580156107b2573d6000803e3d6000fd5b505050602060405103519050600073ffffffffffffffffffffffffffffffffffffffff168173ffffffffffffffffffffffffffffffffffffffff160361080657600060016000801b93509350935050610815565b8060008060001b935093509350505b9450945094915050565b6000604051905090565b600080fd5b600080fd5b60007fffffffff0000000000000000000000000000000000000000000000000000000082169050919050565b61086881610833565b811461087357600080fd5b50565b6000813590506108858161085f565b92915050565b6000602082840312156108a1576108a0610829565b5b60006108af84828501610876565b91505092915050565b60008115159050919050565b6108cd816108b8565b82525050565b60006020820190506108e860008301846108c4565b92915050565b6000819050919050565b610901816108ee565b811461090c57600080fd5b50565b60008135905061091e816108f8565b92915050565b600080fd5b600080fd5b6000601f19601f8301169050919050565b7f4e487b7100000000000000000000000000000000000000000000000000000000600052604160045260246000fd5b6109778261092e565b810181811067ffffffffffffffff821117156109965761099561093f565b5b80604052505050565b60006109a961081f565b90506109b5828261096e565b919050565b600067ffffffffffffffff8211156109d5576109d461093f565b5b6109de8261092e565b9050602081019050919050565b82818337600083830152505050565b6000610a0d610a08846109ba565b61099f565b905082815260208101848484011115610a2957610a28610929565b5b610a348482856109eb565b509392505050565b600082601f830112610a5157610a50610924565b5b8135610a618482602086016109fa565b91505092915050565b60008060408385031215610a8157610a80610829565b5b6000610a8f8582860161090f565b925050602083013567ffffffffffffffff811115610ab057610aaf61082e565b5b610abc85828601610a3c565b9150509250929050565b610acf81610833565b82525050565b6000602082019050610aea6000830184610ac6565b92915050565b600073ffffffffffffffffffffffffffffffffffffffff82169050919050565b6000610b1b82610af0565b9050919050565b610b2b81610b10565b82525050565b6000602082019050610b466000830184610b22565b92915050565b610b5581610b10565b8114610b6057600080fd5b50565b600081359050610b7281610b4c565b92915050565b6000819050919050565b610b8b81610b78565b8114610b9657600080fd5b50565b600081359050610ba881610b82565b92915050565b600080fd5b600080fd5b60008083601f840112610bce57610bcd610924565b5b8235905067ffffffffffffffff811115610beb57610bea610bae565b5b602083019150836001820283011115610c0757610c06610bb3565b5b9250929050565b60008060008060608587031215610c2857610c27610829565b5b6000610c3687828801610b63565b9450506020610c4787828801610b99565b935050604085013567ffffffffffffffff811115610c6857610c6761082e565b5b610c7487828801610bb8565b925092505092959194509250565b600081519050919050565b600082825260208201905092915050565b60005b83811015610cbc578082015181840152602081019050610ca1565b60008484015250505050565b6000610cd382610c82565b610cdd8185610c8d565b9350610ced818560208601610c9e565b610cf68161092e565b840191505092915050565b60006020820190508181036000830152610d1b8184610cc8565b905092915050565b610d2c81610b78565b82525050565b6000606082019050610d476000830186610d23565b610d546020830185610b22565b610d616040830184610d23565b949350505050565b6000602082019050610d7e6000830184610d23565b92915050565b600081519050610d9381610b4c565b92915050565b600060208284031215610daf57610dae610829565b5b6000610dbd84828501610d84565b91505092915050565b6000610dd28385610c8d565b9350610ddf8385846109eb565b610de88361092e565b840190509392505050565b60006020820190508181036000830152610e0e818486610dc6565b90509392505050565b7f4e487b7100000000000000000000000000000000000000000000000000000000600052602160045260246000fd5b600081519050610e5581610b82565b92915050565b6000610e6682610af0565b9050919050565b610e7681610e5b565b8114610e8157600080fd5b50565b600081519050610e9381610e6d565b92915050565b600080600060608486031215610eb257610eb1610829565b5b6000610ec086828701610e46565b9350506020610ed186828701610e84565b9250506040610ee286828701610e46565b9150509250925092565b600081905092915050565b6000610f038385610eec565b9350610f108385846109eb565b82840190509392505050565b6000610f29828486610ef7565b91508190509392505050565b610f3e816108ee565b82525050565b6000604082019050610f596000830185610f35565b8181036020830152610f6b8184610cc8565b90509392505050565b6000610f7f82610c82565b610f898185610eec565b9350610f99818560208601610c9e565b80840191505092915050565b6000610fb18284610f74565b915081905092915050565b600081519050610fcb816108f8565b92915050565b600060208284031215610fe757610fe6610829565b5b6000610ff584828501610fbc565b91505092915050565b600060ff82169050919050565b61101481610ffe565b82525050565b600060808201905061102f6000830187610f35565b61103c602083018661100b565b6110496040830185610f35565b6110566060830184610f35565b9594505050505056fea26469706673582212206aaf67fe1b73fda13edb628829334fcf58857c4fafe7a29b496fc23a294ed28364736f6c63430008140033",
  "linkReferences": {},
  "deployedLinkReferences": {}
}